{
  "contractName": "BubbleToken",
  "abi": [
    {
      "inputs": [
        {
          "internalType": "uint256",
          "name": "_initialSupply",
          "type": "uint256"
        }
      ],
      "stateMutability": "nonpayable",
      "type": "constructor"
    },
    {
      "inputs": [
        {
          "internalType": "address",
          "name": "",
          "type": "address"
        }
      ],
      "name": "balanceOf",
      "outputs": [
        {
          "internalType": "uint256",
          "name": "",
          "type": "uint256"
        }
      ],
      "stateMutability": "view",
      "type": "function"
    },
    {
      "inputs": [],
      "name": "totalSupply",
      "outputs": [
        {
          "internalType": "uint256",
          "name": "",
          "type": "uint256"
        }
      ],
      "stateMutability": "view",
      "type": "function"
    }
  ],
  "bytecode": "0x608060405234801561001057600080fd5b506040516102573803806102578339818101604052810190610032919061007a565b80600081905550506100a7565b600080fd5b6000819050919050565b61005781610044565b811461006257600080fd5b50565b6000815190506100748161004e565b92915050565b6000602082840312156100905761008f61003f565b5b600061009e84828501610065565b91505092915050565b6101a1806100b66000396000f3fe608060405234801561001057600080fd5b50600436106100365760003560e01c806318160ddd1461003b57806370a0823114610059575b600080fd5b610043610089565b60405161005091906100c0565b60405180910390f35b610073600480360381019061006e919061013e565b61008f565b60405161008091906100c0565b60405180910390f35b60005481565b60016020528060005260406000206000915090505481565b6000819050919050565b6100ba816100a7565b82525050565b60006020820190506100d560008301846100b1565b92915050565b600080fd5b600073ffffffffffffffffffffffffffffffffffffffff82169050919050565b600061010b826100e0565b9050919050565b61011b81610100565b811461012657600080fd5b50565b60008135905061013881610112565b92915050565b600060208284031215610154576101536100db565b5b600061016284828501610129565b9150509291505056fea264697066735822122045c356a68d650c4a847d084b97f771f13614373b418628f8b3f71e3a4bd9181d64736f6c634300080b0033",
  "immutableReferences": {},
  "source": "pragma solidity >=0.4.22 <0.9.0; // just mention solidity -v\n\ncontract BubbleToken {\n    // Constructor-> runs everytime our smart contract is deployed\n    // Set the total number of tokens\n    // Read the total number of tokens\n\n    uint256 public totalSupply;\n    // with public visibility we get getter function by default\n    // totalSupply is also reqd function for ERC20 token\n    // reading data from eth chain is free but writing to it costs data\n\n\n    mapping(address => uint256) public balanceOf;\n    //gives us a by default reader funcn which return balance of\n    //tokens on eth account\n\n    constructor (uint256 _initialSupply) public {\n        totalSupply = _initialSupply;// state variable-> a variable accessible to entire contract\n        // whenver a state variable is updated its going to write to entire blockchain\n        \n        //allocate the initial supply\n    }\n\n\n}\n",
  "sourcePath": "/private/etc/utsav/code/crypto_stuff/createToken/contracts/bubbleToken.sol",
  "compiler": {
    "name": "solc",
    "version": "0.8.11+commit.d7f03943.Emscripten.clang"
  },
  "schemaVersion": "3.4.5",
  "updatedAt": "2022-02-20T18:14:59.684Z",
  "devdoc": {
    "kind": "dev",
    "methods": {},
    "version": 1
  },
  "userdoc": {
    "kind": "user",
    "methods": {},
    "version": 1
  }
}