{
  "contractName": "BubbleToken",
  "abi": [
    {
      "inputs": [],
      "stateMutability": "nonpayable",
      "type": "constructor"
    },
    {
      "inputs": [],
      "name": "totalSupply",
      "outputs": [
        {
          "internalType": "uint256",
          "name": "",
          "type": "uint256"
        }
      ],
      "stateMutability": "view",
      "type": "function",
      "constant": true
    }
  ],
  "bytecode": "0x608060405234801561001057600080fd5b50620f424060008190555060b3806100296000396000f3fe6080604052348015600f57600080fd5b506004361060285760003560e01c806318160ddd14602d575b600080fd5b60336047565b604051603e91906064565b60405180910390f35b60005481565b6000819050919050565b605e81604d565b82525050565b6000602082019050607760008301846057565b9291505056fea2646970667358221220958f34f2b38ce24b1d6c6a5c2fc9e9000c57b708c12a8e7c869c79514b0080c964736f6c634300080b0033",
  "immutableReferences": {},
  "source": "pragma solidity >=0.4.22 <0.9.0; // just mention solidity -v\n\ncontract BubbleToken {\n    // Constructor-> runs everytime our smart contract is deployed\n    // Set the total number of tokens\n    // Read the total number of tokens\n\n    uint256 public totalSupply;\n    // with public visibility we get getter function by default\n    // totalSupply is also reqd function for ERC20 token\n\n    constructor () public {\n        totalSupply = 1000000;// state variable-> a variable accessible to entire contract\n        // whenver a state variable is updated its going to write to entire blockchain\n    }\n}\n",
  "sourcePath": "/private/etc/utsav/code/crypto_stuff/createToken/contracts/bubbleToken.sol",
  "compiler": {
    "name": "solc",
    "version": "0.8.11+commit.d7f03943.Emscripten.clang"
  },
  "schemaVersion": "3.4.5",
  "updatedAt": "2022-02-20T16:32:37.734Z",
  "networkType": "ethereum",
  "devdoc": {
    "kind": "dev",
    "methods": {},
    "version": 1
  },
  "userdoc": {
    "kind": "user",
    "methods": {},
    "version": 1
  }
}